:100000000C94B3010C94D2010C94D2010C94D20143
:100010000C94D2010C94D2010C94D2010C94D20114
:100020000C94D2010C94D2010C94D2010C94D20104
:100030000C94CF090C94D2010C94D2010C94D201EF
:100040000C94D2010C94D2010C944A030C94D2016A
:100050000C94D2010C94D2010C94D2010C94D201D4
:100060000C94D2010C94D2010C94D2010C94D201C4
:100070000C94D2010C94D2010C94D2010C94D201B4
:100080000C94D2010C94D2010C94D2010000000017
:100090000000005F00000007000700147F147F14B9
:1000A000242A7F2A122313086462364955225000FD
:1000B00005030000001C2241000041221C00082A08
:1000C0001C2A0808083E08080050300000080808EC
:1000D0000808003030000020100804023E51494555
:1000E0003E00427F400042615149462141454B312B
:1000F0001814127F1027454545393C4A49493001BB
:10010000710905033649494936064949291E003611
:100110003600000056360000000814224114141462
:100120001414412214080002015109063249794190
:100130003E7E1111117E7F494949363E414141229F
:100140007F4141221C7F494949417F090901013E04
:10015000414151327F0808087F00417F4100204023
:10016000413F017F081422417F404040407F02040C
:10017000027F7F0408107F3E4141413E7F0909090B
:10018000063E4151215E7F091929464649494931B8
:1001900001017F01013F4040403F1F2040201F7F61
:1001A0002018207F6314081463030478040361514A
:1001B00049454300007F4141020408102041417F2E
:1001C00000000402010204404040404000010204DB
:1001D0000020545454787F484444383844444420E0
:1001E000384444487F3854545418087E09010208A2
:1001F0001454543C7F0804047800447D400020409F
:10020000443D00007F10284400417F40007C0418DA
:1002100004787C0804047838444444387C1414146A
:1002200008081414187C7C0804040848545454200A
:10023000043F4440203C4040207C1C2040201C3C8B
:100240004030403C44281028440C5050503C4464FA
:10025000544C44000836410000007F000000413645
:10026000080008082A1C08081C2A080800407A1000
:10027000F35A00A0724E18090010A5D4E80000E857
:100280007648170000E40B54020000CA9A3B0000B5
:1002900000E1F505000080969800000040420F0044
:1002A0000000A08601000000102700000000E80305
:1002B000000000006400000000000A0000000000D0
:1002C0000100000000002C76D888DC674F0823DF8F
:1002D000C1DFAE59E1B1B796E5E3E453C63AE65162
:1002E000997696E8E6C28426EB898C9B62ED407C89
:1002F0006FFCEFBC9C9F40F2BAA56FA5F490055A25
:100300002AF75C936B6CF9676DC11BFCE0E40D4749
:10031000FEF520E6B500D0ED902E0300943577056C
:100320000080841E080000204E0A000000C80C3324
:100330003333330F986E12831141EF8D2114893BB3
:10034000E65516CFFEE6DB18D1844B381BF77C1D33
:10035000901DA4BBE424203284725E228100C9F186
:1003600024ECA1E53D2711241FBECFEFD0E1DEBF75
:10037000CDBF12E0A0E0B1E0EAEEF9E200E00BBF91
:1003800002C007900D92AE33B107D9F712E0AEE389
:10039000B2E001C01D92A438B107E1F70E94D40178
:1003A0000C94F3140C9400008F92AF92CF92DF92D2
:1003B000EF92FF920F9381E090E060E00E94E008EE
:1003C000E2E5F2E0119222E0E637F207D9F7109267
:1003D000830210928202109277021092760210929B
:1003E00048021092470210924E0210924D02109253
:1003F0008002109242021092430210924402109224
:1004000045021092780210924C0210924B02109208
:10041000400210923F02109281021092410210920B
:100420007F0210927E0210924A0210924F021092A6
:10043000510281E090E00E94920880935002109255
:100440007F0210927E0280E090E0DC0180937902CE
:1004500090937A02A0937B02B0937C02109249029F
:1004600010923E0210927D02109246028FEF87BBDF
:1004700088B38F73806488BB0E94010A0E94EC02DB
:100480000E94CF050E940F060E94130A80918202EB
:10049000909183028330910540F010928302109274
:1004A0008202809180020E94FF02809176029091E8
:1004B00077028230910508F447C0109277021092BB
:1004C00076020E941B0A90934C0280934B020E947A
:1004D000230A9093400280933F0280914B029091B7
:1004E0004C020E942B0A8093810280913F029091DE
:1004F00040020E944E0A682F80934102809181023F
:100500000E94710A8093510280913F0290914002B3
:100510000E94090B80934902809151020E94260B90
:1005200080933E0281E090E0609151024091500240
:100530000E94240980935002809149020E94300455
:1005400080913E020E9444048091470290914802AB
:100550008436910520F01092480210924702809153
:100560004D0290914E0221E08C32920708F48ECF1A
:1005700010924E0210924D020E94BC0A90937F028C
:1005800080937E020E94EE0A6093790270937A0251
:1005900080937B0290937C0280917E0290917F02F7
:1005A0000E94270B482F80937D02C0907902D09043
:1005B0007A02E0907B02F0907C0280914902609187
:1005C0003E022091460200915002A0904A02809083
:1005D0004F020E9480045ACF129A83E080939000C9
:1005E00080E489B98AB188618AB95298E5E9F0E076
:1005F00080818F64808380818F7C808308955D9B60
:10060000FECF8CB908955F9BFECF8CB10895EF9219
:10061000FF920F931F930E940303E82E0E9403038F
:10062000FF2400E010E08701FF24EE2490E0A0E02A
:10063000B0E0BA2FA92F982F8827E80EF91E0A1FBD
:100640001B1F0E940303A8019701280F311D411DA4
:10065000511DB901CA011F910F91FF90EF900895AC
:10066000EF92FF920F931F937B018C0190700E9479
:10067000B00944E116950795F794E7944A95D1F7A8
:1006800091E08E1509F490E0892F1F910F91FF9052
:10069000EF9008951F920F920FB60F920BB60F9224
:1006A0001124EF92FF920F931F932F933F934F9339
:1006B0005F936F937F938F939F93AF93BF93EF93CA
:1006C000FF930E94030390917802923008F43FC098
:1006D000E82EFF2400E010E0892F90E090958195AE
:1006E0009F4F63E0880F991F6A95E1F7029604C057
:1006F000EE0CFF1C001F111F8A95D2F7C801B7012D
:100700000E9430038823A9F0E0918002D801C7013C
:100710008070907FAF70B0705CE0B695A7959795AC
:1007200087955A95D1F7E81721F0F0E0EE5AFD4F82
:10073000E082809180028F5F80938002843218F083
:100740001092800202C00E94FF0210927802FF9174
:10075000EF91BF91AF919F918F917F916F915F9139
:100760004F913F912F911F910F91FF90EF900F901C
:100770000BBE0F900FBE0F901F9018956070707F8A
:100780008F709070ECE09695879577956795EA95D0
:10079000D1F721E0461709F420E0822F0895DF9277
:1007A000EF92FF920F931F93D82E8D2D0E94FF0280
:1007B0000E9407037B018C010E9430038823A9F764
:1007C000A80197012070307F4F705070FCE0569563
:1007D000479537952795FA95D1F7D21631F79701B6
:1007E0003F70C9011F910F91FF90EF90DF90089526
:1007F000DF92EF92FF920F931F93CF93DF93D82E48
:10080000C5E0D0E009C08D2D0E94FF020E940703C1
:100810007B018C012197B1F0C801B7010E94300320
:10082000882389F7A80197012070307F4F7050709E
:10083000ACE05695479537952795AA95D1F7D216EE
:1008400011F70BC020E030E0C901DF91CF911F917B
:100850000F91FF90EF90DF90089597013F70F4CFD4
:100860001F93182F82E090E061E370E042E450E0D3
:100870000E94600882E090E061E370E0412F50E068
:100880000E942E081F9108951F93182F8EE590E067
:1008900069E070E042E450E00E9460088EE590E07C
:1008A00069E070E0412F50E00E942E081F910895EA
:1008B0001F93182F82E090E069E070E042E450E07E
:1008C0000E94600882E090E069E070E0412F50E013
:1008D0000E942E081F9108951F93182F82E090E028
:1008E00069E170E042E450E00E94600882E090E03C
:1008F00069E170E0412F50E00E942E081F91089599
:100900004F925F926F927F928F92AF92BF92CF92EF
:10091000DF92EF92FF920F931F93DF93CF93CDB7A8
:10092000DEB761970FB6F894DEBF0FBECDBFB02E15
:1009300026013701298B488B6F878E870E94CF0550
:100940000E940F068E850E9430046F85862F0E94BC
:1009500044044889842F0E9458042989822F0E94C8
:100960006C0481E060E040E051E00E94A10697E065
:10097000C92E91E0D92E87E360E0A6010E94A1066E
:1009800080E067E046E42AE00E94AC0687E461E08C
:1009900049E051E00E94A1068AE0E82EF12CEC0E1D
:1009A000FD1EC301B20142E021E087010E945812FE
:1009B00085E260E0A7010E94A10680E067E146E4CD
:1009C0002AE00E94AC0687E463E04BE051E00E941D
:1009D000A10681E065E04DE051E00E94A10680E0C3
:1009E0006FE246E42AE00E94AC068CE560E042E15A
:1009F00051E00E94A1068AE960E0A6010E94A106DA
:100A00008B2D90E08E010F5F1F4FB8014AE050E040
:100A10000E947A1288E860E0A8010E94A1068CE595
:100A200067E046E42AE00E94AC0686E690E061E1D9
:100A300070E046E650E023E130E00E94770780E76F
:100A400090E061E170E040E750E025E130E00E9495
:100A500077078AE790E061E170E04AE750E023E140
:100A600030E00E94770784E890E061E170E044E8BC
:100A700050E025E130E00E9477078EE890E061E1E8
:100A800070E04EE850E023E130E00E94770788E90B
:100A900090E061E170E048E950E025E130E00E943B
:100AA00077078FE563E04AE151E00E94A1068E01DD
:100AB0000C5F1F4F8A2D90E0B8014AE050E00E9481
:100AC0007A1283E863E0A8010E94A1068FE564E042
:100AD00045E251E00E94A1068E01095F1F4F882D5B
:100AE00090E0B8014AE050E00E947A1283E864E0A6
:100AF000A8010E94A1068FE565E040E351E00E9455
:100B0000A1068CE566E146E428E20E94AC06619607
:100B10000FB6F894DEBF0FBECDBFCF91DF911F910E
:100B20000F91FF90EF90DF90CF90BF90AF908F909C
:100B30007F906F905F904F900895C498C2981ABAB2
:100B4000C09889B3C09A9FEF9ABBC49A0895C4987D
:100B5000C2988BBBC1980000000000000000C19A41
:100B6000C49A0895C498C29A8BBBC1980000000033
:100B700000000000C19AC49A0895C498C29A1ABA93
:100B8000C09800000000C09A00000000C09800005B
:100B9000000089B3C09AC49A9FEF9ABB08958FEF63
:100BA00087BB8ABBC398C39A8BEA0E94A70582EAD7
:100BB0000E94A70580EA0E94A70588EC0E94A7056D
:100BC00085E20E94A70581E80E94A7058AE20E94AB
:100BD000A70589E20E94A7058BE20E94A7058FE284
:100BE0000E94A7058FEA0E94A70580E40E94A7053E
:100BF00087EA0E94A70508951F93182F1D5F862F6F
:100C0000806B0E94A705812F82958F7080610E9462
:100C1000A705812F8F700E94A7051F9108950F933C
:100C20001F93CF93DF93C0E0D0E080E06C2F0E9451
:100C3000FC0504EA10E080E00E94B20535E33A9535
:100C4000F1F7000001501040B1F72196C930D105ED
:100C500061F7DF91CF911F910F910895FF920F934C
:100C60001F93DF93CF930F92CDB7DEB7182F062FC8
:100C7000F62EF694F694F6946F2D49830E94FC05A7
:100C80000E94BD05202F30E04981442361F0A90175
:100C90004770507021E030E002C0220F331F4A95A8
:100CA000E2F7282B0CC0A9014770507021E030E01A
:100CB00002C0220F331F4A95E2F720952823812F87
:100CC0006F2D29830E94FC052981822F0E94B20585
:100CD0000F90CF91DF911F910F91FF9008950F9387
:100CE0001F93CF93DF93805295E0899FE0011124F9
:100CF0008E010B5F1F4FFE01E457FF4F84910E944E
:100D0000B2052196C017D107B1F780E00E94B20565
:100D1000DF91CF911F910F910895EF92FF92CF93A2
:100D2000DF93E82EE7017E01F92EE70102C00E9461
:100D30006F0689918823D9F7DF91CF91FF90EF90CB
:100D40000895CF93DF93EA010E94FC05CE010E9433
:100D50008D06DF91CF910895CF92DF92EF92FF92AF
:100D60000F931F93DF93CF930F92CDB7DEB7082F6A
:100D7000162FF42EEE24D82EDA94D40E0FC0CE2CDB
:100D8000C10E802F6C2D41E029830E942E068D2DEF
:100D90006C2D41E00E942E06E3942981E21678F33F
:100DA000EE24D12EDA94D20E0DC0CE2CC00E8C2D96
:100DB000612F41E00E942E068C2D6D2D41E00E9496
:100DC0002E06E394EF1488F30F90CF91DF911F91DB
:100DD0000F91FF90EF90DF90CF9008952F923F9268
:100DE0005F926F927F928F929F92AF92BF92CF92BB
:100DF000DF92EF92FF920F931F93CF93DF93A82E72
:100E0000B62EE42EFF24CC27DD27CE19DF09CC0F28
:100E1000DD1F219600E010E031E0232E312CCC24A0
:100E2000DD245E2C5A0C7C2C7B0C852D672D41E03B
:100E30000E942E066A2C6E18862D672D41E00E94B6
:100E40002E067B2C7C18862D672D41E00E942E06F5
:100E5000852D672D41E00E942E067C2C7A0C6E2C8D
:100E60006B0C872D662D41E00E942E068A2D8C1971
:100E7000882E662D41E00E942E069B2D9E19992EEC
:100E8000882D692F41E00E942E06872D692D41E0B3
:100E90000E942E060894C11CD11C020D131D82E075
:100EA00090E0280E391EC801880F991F8C0F9D1FD6
:100EB0001816190634F40894E108F1080C0F1D1FE8
:100EC0002296EC14FD040CF0ACCFDF91CF911F9172
:100ED0000F91FF90EF90DF90CF90BF90AF909F90D9
:100EE0008F907F906F905F903F902F9008952F92FA
:100EF0003F924F925F926F927F928F929F92AF92AA
:100F0000BF92CF92DF92EF92FF920F931F93DF93E6
:100F1000CF9300D000D000D0CDB7DEB73C014B015D
:100F20005A8349833C832B839A01281B390B3E83C8
:100F30002D830B811C81061B170B1901220C331CFE
:100F40002801440C551C37FF0DC0309521953F4FAB
:100F50003E832D833094219431083394EE24EA9417
:100F6000FE2C03C061E0E62EF12C17FF0BC010959C
:100F700001951F4F5094419451085394CC24CA9426
:100F8000DC2C03C051E0C52ED12C862D682D41E00C
:100F90000E942E068D819E81009721F40115110576
:100FA00031F543C0ED81FE81E017F10704F15701EF
:100FB000A60CB71C00E010E0040D151D2D813E812C
:100FC0002017310724F48C0C9D1C021913098A2D5B
:100FD000682D41E00E942E06AE0CBF1CC5018E1983
:100FE0009F09E981FA818E179F0731F71EC05601CC
:100FF000A80CB91C430166247724620C731C0615E7
:10100000170524F48E0C9F1C64187508882D6A2D12
:1010100041E00E942E06AC0CBD1CC5018C199D0937
:101020002B813C818217930741F726960FB6F894DF
:10103000DEBF0FBECDBFCF91DF911F910F91FF900B
:10104000EF90DF90CF90BF90AF909F908F907F9068
:101050006F905F904F903F902F900895BF92CF92E6
:10106000DF92EF92FF920F931F93CF93DF93D82ECF
:10107000C62E7A011416150694F018C09E012D0D87
:10108000822F6B2D41E00E942E062196CE15DF05A2
:10109000ACF30F5F1F4F0630110519F407C000E0D5
:1010A00010E0C0E0D0E0B02EBC0CE8CFDF91CF91D3
:1010B0001F910F91FF90EF90DF90CF90BF90089518
:1010C000BF92CF92DF92EF92FF920F931F93CF9335
:1010D000DF93D82EC62E7A011416150694F018C088
:1010E0009E012D0D822F6B2D40E00E942E06219631
:1010F000CE15DF05ACF30F5F1F4F0630110519F455
:1011000007C000E010E0C0E0D0E0B02EBC0CE8CF9B
:10111000DF91CF911F910F91FF90EF90DF90CF90D3
:10112000BF900895E199FECF9FBB8EBBE09A8DB32F
:101130000895CF92DF92EF92FF920F931F93CF9378
:10114000DF936C01C8E1D0E0EE24FF248701C601E3
:101150000E94920890E0A0E0B0E00C2E04C0880F3E
:10116000991FAA1FBB1F0A94D2F7E80EF91E0A1F87
:101170001B1F0894C11CD11C28973FEFC83FD30701
:1011800031F7B701C801DF91CF911F910F91FF9007
:10119000EF90DF90CF9008951F93CF93DF93EC01F2
:1011A0000E949208182FCE0101960E949208312FBA
:1011B00020E0280F311DC901DF91CF911F910895C3
:1011C000E199FECF9FBB8EBB6DBBE29AE19A089579
:1011D000CF92DF92EF92FF920F931F93CF93DF9303
:1011E000EC016A017B0108E110E0A7019601002EE5
:1011F00004C056954795379527950A94D2F7CE01A6
:10120000622F0E94E0080850104021968FEF083F9F
:10121000180759F7DF91CF911F910F91FF90EF9031
:10122000DF90CF9008951F93CF93DF93EC01162F9B
:10123000672F0E94E008CE010196612F0E94E0080E
:10124000DF91CF911F9108951F93162F461718F421
:101250000E94E008412F842F1F910895CF92DF92C2
:10126000EF92FF920F931F93DF93CF93CDB7DEB72B
:1012700066970FB6F894DEBF0FBECDBFFC01DC0150
:1012800080E01D928F5F8830E1F78E010F5F1F4F66
:101290002130B9F42FE130E0DB01CA01022E04C095
:1012A000B695A795979587950A94D2F78170D8013E
:1012B0008D938D01215030402A30310569F765E169
:1012C00016C02FE130E0DB01CA01022E04C0B69542
:1012D000A795979587950A94D2F78170D8018D9339
:1012E0008D01215030402930310569F766E1C48015
:1012F0004781128101815081F6807581E380262F1C
:1013000030E0CE01019605C04F2DF72E7C2DCE2C5E
:10131000ED2CC426D12ED426102F1427052F0427F8
:10132000D901A61BB109A80FB91F5C9154276150C0
:1013300059F7E482F7821283018350837683C58252
:10134000D38266960FB6F894DEBF0FBECDBFCF91A5
:10135000DF911F910F91FF90EF90DF90CF90089554
:10136000262F372F482F592FDA01C90164E128EDC4
:1013700030E040E050E087FF04C082279327A42795
:10138000B527880F991FAA1FBB1F6150A1F724E042
:10139000B695A795979587952A95D1F708951F92A9
:1013A0000F920FB60F9211248F939F938091820218
:1013B00090918302019690938302809382028091A0
:1013C000760290917702019690937702809376024D
:1013D0008091470290914802019690934802809331
:1013E000470280914D0290914E02019690934E02D9
:1013F00080934D029F918F910F900FBE0F901F9081
:10140000189580E792E09BBD8ABD1DBC1CBC1FBC2B
:101410008EB58C7E8EBD8EB58C608EBD87B780619B
:1014200087BF7894089586B1876C86B986B1877C2A
:1014300086B93E9A08953898369A3699FECF24B1E7
:1014400035B1C9010895389A369A3699FECF24B13C
:1014500035B1C9010895BC016050724022E060308E
:101460007207A0F480E090E00E94AB0F20E030E033
:1014700040E752E40E94210D20E030E040E05BE3D1
:101480000E94210D0E944D0B862F089522E080308E
:10149000920710F480E008958CE30895BC01605039
:1014A000724022E060307207A0F480E090E00E9479
:1014B000AB0F20E030E048E453E40E94210D20E02F
:1014C00030E040E05BE30E94210D0E944D0B862F2F
:1014D000089522E08030920710F480E0089588ECAF
:1014E0000895CF92DF92EF92FF921F93162F90E014
:1014F0009C01B901882777FD8095982F0E94F90EED
:101500002CE53FE842E45FE30E94210D6B017C0182
:10151000612F70E0882777FD8095982F0E94F90E43
:1015200022E63EEB4CE35CE30E94210D9B01AC0103
:10153000C701B6010E94F00C2AE63CEB44EB5EE3E7
:101540000E94210D22E538EB4EE55FE30E94210D5C
:1015500026E636E646E650E40E94210D0E944D0B39
:10156000862F962F9150953408F080E01F91FF90C0
:10157000EF90DF90CF900895E2E5F2E020E030E0D8
:101580008191280F311D82E0E835F807C9F74091B5
:10159000600280915F0290E0840F911D4091610292
:1015A000840F911D40916202840F911D40916B0246
:1015B000840F911D40916C02840F911D40916D022A
:1015C000840F911D40916E02840F911D820F931F15
:1015D0006DE070E00E940D12CB01089560917E02D3
:1015E00070917F0280E090E00E94AB0F20E030E03D
:1015F00040E850E40E94210D20E030E040E859E34B
:101600000E94210D20E030E040E85FE30E94C30C1F
:101610000895BC016050724022E06030720770F49F
:1016200080E090E00E94AB0F2CEE31E548EF50E4F3
:101630000E941B0E0E944D0B862F089522E08030E1
:10164000920710F480E0089582E4089508959C01C3
:101650002650384043E02F3F3407B8F48550984077
:10166000BC0180E090E00E94AB0F20E030E044E855
:1016700052E40E94210D20E030E040E85AE30E944D
:10168000210D0E944D0B862F089528E0853092078A
:1016900011F082E4089580E00895EF92FF920F9395
:1016A0001F937B018C0120E030E040E05FE40E946A
:1016B000C90E87FD11C0C801B70120E030E040E04D
:1016C0005FE40E94F00C0E94590F9B01AC01205076
:1016D00030404040504806C0C801B7010E94590F31
:1016E0009B01AC01B901CA011F910F91FF90EF90CE
:1016F0000895A0E0B0E0EFE7FBE00C942512FC01B8
:10170000EA018081823008F438C1DB019C9192307B
:1017100008F430C1843059F4943009F02EC191811D
:1017200011968C911197981709F021C126C1943018
:1017300009F420C19230B1F4823009F01EC1CA010F
:10174000AF0128E0DA010D90AD01DC010D92CD0171
:101750002150C1F7DB0111968C911197918189235A
:1017600089830AC1823009F405C1C280D380DB01BC
:1017700012966D907C901397248135814681578114
:101780001496ED90FD900D911C911797C601861946
:1017900097095C0197FF04C0AA24BB24A81AB90AC0
:1017A000B0E2AB16B1040CF061C0181619066CF566
:1017B000370148010A2C04C0969487947794679463
:1017C0000A94D2F781E090E0A0E0B0E00A2C04C0D7
:1017D000880F991FAA1FBB1F0A94D2F70197A1096E
:1017E000B1098E219F21A023B123EE24FF2487017C
:1017F000E3940097A105B10519F4EE24FF248701B5
:10180000E628F728082919293CC00097D1F1CA0C0D
:10181000DB1C39014A010A2C04C096948794779402
:1018200067940A94D2F781E090E0A0E0B0E00A2C3F
:1018300004C0880F991FAA1FBB1F0A94D2F70197F3
:10184000A109B10982239323A423B52321E030E029
:1018500040E050E00097A105B10519F420E030E028
:10186000A90126293729482959290BC06C147D0460
:1018700024F4EE24FF24870104C0630120E030E05B
:10188000A9018181FB019181891709F445C0882351
:1018900049F0D801C701821B930BA40BB50B9C0127
:1018A000AD0104C02E193F09400B510B57FD04C078
:1018B0001982DB82CA820BC081E08983DB82CA8203
:1018C00050954095309521953F4F4F4F5F4F2C835A
:1018D0003D834E835F830DC0880F991FAA1FBB1FD6
:1018E0008C839D83AE83BF838A819B8101979B8379
:1018F0008A838C819D81AE81BF819C01AD01215085
:101900003040404050402F3FEFEF3E07EFEF4E0793
:10191000EFE35E0708F30BC08983DB82CA822E0DDA
:101920003F1D401F511F2C833D834E835F8383E007
:1019300088832C813D814E815F8157FF1DC0DA0174
:10194000C90181709070A070B07056954795379519
:101950002795822B932BA42BB52B8C839D83AE8351
:10196000BF838A819B8101969B838A8305C0E6E3BE
:10197000F1E003C0FB0101C0FE01CF01CDB7DEB72E
:10198000EEE00C944112A0E2B0E0E9ECFCE00C9433
:101990002D1269837A838B839C832D833E834F83AF
:1019A000588789E0E82EF12CEC0EFD1ECE01019641
:1019B000B7010E944B118E010F5E1F4FCE0105969D
:1019C000B8010E944B11C701B801AE01475E5F4FDD
:1019D0000E94790B0E947D10A096E6E00C944912BB
:1019E000A0E2B0E0E6EFFCE00C942D1269837A836C
:1019F0008B839C832D833E834F8358878E01075FA3
:101A00001F4FCE010196B8010E944B1191E1E92EC2
:101A1000F12CEC0EFD1ECE010596B7010E944B1174
:101A20008A8991E089278A8BC801B701AE01475E98
:101A30005F4F0E94790B0E947D10A096E6E00C9407
:101A40004912A0E2B0E0E7E2FDE00C9421126983C4
:101A50007A838B839C832D833E834F835887CE016B
:101A60000196BE01675F7F4F0E944B11CE01059624
:101A7000BE016F5E7F4F0E944B119985923078F0C6
:101A800089898230C0F0943019F4823041F4CBC09F
:101A9000843019F4923079F4C6C0923051F481E068
:101AA0002A859A89291709F480E08A87CE01099648
:101AB000BCC0823051F481E02A859A89291709F443
:101AC00080E08A8BCE014196B0C06D847E848F8485
:101AD0009888ED88FE880F89188DE0E2F0E080E0BC
:101AE00090E0DC01AA24BB24650120E030E0A901DC
:101AF000B3016170707061157105D1F02E0D3F1D3D
:101B0000401F511F15012601280E391E4A1E5B1E5B
:101B100081E090E0A0E0B0E02E153F0540075107BE
:101B200018F080E090E0DC01820D931DA41DB51D2E
:101B3000AA0CBB1CCC1CDD1C17FF09C061E0262EC3
:101B4000312C412C512CA228B328C428D5283197F8
:101B500049F0EE0CFF1C001F111F96948794779498
:101B60006794C6CF6B897C89EB85FC856E0F7F1FE0
:101B70006E5F7F4F7C8F6B8F61E0EA857A89E71714
:101B800009F460E06A8F6B8D7C8D10C0FC01E17000
:101B9000F070309729F056954795379527955068FE
:101BA000B695A795979587956F5F7F4FB7FDEECF59
:101BB0000CC0880F991FAA1FBB1F57FD8160220F01
:101BC000331F441F551F615070408030E0E09E0776
:101BD000E0E0AE07E0E4BE0760F36B8F7C8F6FE759
:101BE000E62EF12C012D112DE822F9220A231B23C8
:101BF00060E4E616F1040105110561F487FD0AC0F1
:101C0000211531054105510529F0805C9F4FAF4FEB
:101C1000BF4F80788D8F9E8FAF8FB8A383E0898F61
:101C2000CE01499602C086E391E00E947D10A09605
:101C3000E2E10C943D12A8E1B0E0E1E2FEE00C9498
:101C4000291269837A838B839C832D833E834F8300
:101C500058878E01075F1F4FCE010196B8010E9481
:101C60004B1181E1E82EF12CEC0EFD1ECE01059604
:101C7000B7010E944B119985923008F483C089897D
:101C8000823008F47BC02A853A8923272A8794303A
:101C900011F0923021F4981709F06CC071C08430B3
:101CA00039F41D861E861F86188A1C861B866AC00C
:101CB000823019F484E0898765C08B859C852B89E7
:101CC0003C89821B930B9C878B872D853E854F8596
:101CD0005889ED88FE880F89188D2E153F0540071D
:101CE000510738F4220F331F441F551F01979C875B
:101CF0008B876FE170E0A12CB12CC12CA0E4DA2E0F
:101D000080E090E0DC012E153F054007510740F0D0
:101D10008A299B29AC29BD292E193F09400B510B5B
:101D2000D694C794B794A794220F331F441F551F0E
:101D30006150704041F76FE7E62EF12C012D112D17
:101D4000E822F9220A231B2360E4E616F1040105C8
:101D5000110561F487FD0AC02115310541055105C2
:101D600029F0805C9F4FAF4FBF4F80788D879E8753
:101D7000AF87B88B8E01075F1F4F04C0870102C079
:101D800006E311E0C8010E947D106896EAE00C9419
:101D90004512A8E1B0E0EFECFEE00C942D1269834F
:101DA0007A838B839C832D833E834F8358878E0158
:101DB000075F1F4FCE010196B8010E944B1181E1D0
:101DC000E82EF12CEC0EFD1ECE010596B7010E9407
:101DD0004B118985823040F08989823028F0C80112
:101DE000B7010E94B41101C08FEF6896E6E00C9431
:101DF0004912A8E0B0E0EFEFFEE00C942D127B0159
:101E00008C0183E08983D801C7018827B7FD8395BA
:101E10009927AA27BB27282F8A83E114F1040105FB
:101E2000110519F482E0898337C08EE190E09C832C
:101E30008B83222389F080E0E81680E0F80680E0BA
:101E4000080780E8180769F110950095F094E09470
:101E5000E11CF11C011D111DED82FE820F8318870C
:101E6000C801B7010E9423109C0121503040121676
:101E7000130694F4022E04C0EE0CFF1C001F111F69
:101E80000A94D2F7ED82FE820F8318878EE190E0EC
:101E9000821B930B9C838B83CE0101960E947D1045
:101EA00004C060E070E080E09FEC2896E6E00C94CF
:101EB0004912ACE0B0E0EFE5FFE00C943112698329
:101EC0007A838B839C83CE010196BE016B5F7F4F2B
:101ED0000E944B118D81823081F1823070F184300B
:101EE00021F48E81882369F10AC02F81388537FD5E
:101EF00024C06E812F3131053CF0662311F120E0C2
:101F000030E040E050E821C08EE190E0821B930B6E
:101F100029853A854B855C8504C05695479537954C
:101F200027958A95D2F7662381F050954095309594
:101F300021953F4F4F4F5F4F08C020E030E0A9018F
:101F400004C02FEF3FEF4FEF5FE7B901CA012C96B6
:101F5000E2E00C944D12A8E0B0E0E1EBFFE00C945D
:101F60002B127B018C011A82611571058105910587
:101F700019F482E089835FC083E089838EE1C82EF3
:101F8000D12CDC82CB82ED82FE820F831887C801C0
:101F9000B7010E942310FC013197F7FF3AC0AA272E
:101FA000BB27AE1BBF0B21E030E040E050E00A2E23
:101FB00004C0220F331F441F551F0A94D2F721502B
:101FC0003040404050402E213F214023512361E0CA
:101FD00070E080E090E0211531054105510519F4CC
:101FE00060E070E0CB0104C016950795F794E79484
:101FF000AA95D2F7E62AF72A082B192BED82FE8242
:102000000F8318878EE190E08E1B9F0B9C838B8340
:1020100012C0309781F00E2E04C0EE0CFF1C001F82
:10202000111F0A94D2F7ED82FE820F831887CE1A11
:10203000DF0ADC82CB82CE0101960E947D102896B9
:10204000E8E00C944712AF92BF92CF92DF92EF92EA
:10205000FF920F931F937B018C0180E0E81680E0D4
:10206000F80681E0080780E0180758F4EFEFEE1655
:10207000F1040105110509F090F480E090E0DC0125
:1020800017C0F0E0EF16F0E0FF06F0E00F07F1E018
:102090001F0750F480E190E0A0E0B0E009C088E0C4
:1020A00090E0A0E0B0E004C088E190E0A0E0B0E003
:1020B00020E230E040E050E0281B390B4A0B5B0B7C
:1020C0005701680104C0D694C794B794A7948A9521
:1020D000D2F7D601C501825C9E4FFC018081281B8E
:1020E000310941095109C9011F910F91FF90EF90EA
:1020F000DF90CF90BF90AF900895EF92FF920F9333
:102100001F93CF93DF93FC01248135814681578152
:1021100061818081823020F44061EFEFF0E0A3C064
:10212000843009F49BC0823009F492C02115310536
:102130004105510509F48FC00280F381E02D8FEF36
:10214000E238F8070CF05AC0C2E8DFEFCE1BDF0B15
:10215000CA31D1056CF579018A010C2E04C016959F
:102160000795F794E7940A94D2F781E090E0A0E015
:10217000B0E00C2E04C0880F991FAA1FBB1F0A9441
:10218000D2F70197A109B10982239323A423B52390
:1021900021E030E040E050E00097A105B10519F4DE
:1021A00020E030E0A9012E293F29402B512B03C00C
:1021B00020E030E0A901DA01C9018F779070A070AA
:1021C000B07080349105A105B10539F427FF09C02D
:1021D000205C3F4F4F4F5F4F04C0215C3F4F4F4F3C
:1021E0005F4FE1E0F0E0203080E0380780E0480712
:1021F00080E4580728F5E0E0F0E022C0E038F1057F
:102200006CF5E158FF4FDA01C9018F779070A0702B
:10221000B07080349105A105B10539F427FF09C0DC
:10222000205C3F4F4F4F5F4F04C0215C3F4F4F4FEB
:102230005F4F57FF05C056954795379527953196BF
:1022400087E056954795379527958A95D1F70BC026
:10225000E0E0F0E005C0E0E0F0E005C0EFEFF0E026
:1022600020E030E0A9018E2F879588278795942F4D
:102270009F77679566276795E695E22EA92FA82B8D
:10228000FE2FF62B622F732F8A2F9F2FCDB7DEB72D
:10229000E6E00C944912DC01FB012C9111963C9173
:1022A000119712968C911297482F4F7750E0982FE4
:1022B000991F9927991F13966C911397862F880F52
:1022C000892B90E0661F6627661F6183009739F5AA
:1022D000211531054105510511F482E029C082E83C
:1022E0009FEF9383828367E0220F331F441F551FA4
:1022F0006A95D1F783E0808309C0220F331F441F02
:10230000551F82819381019793838283203080E0DF
:10231000380780E0480780E4580778F320C08F3FF3
:10232000910579F4211531054105510519F484E031
:102330008083089544FF03C081E0808310C0108231
:102340000EC08F5790409383828383E0808387E021
:10235000220F331F441F551F8A95D1F750642483E1
:102360003583468357830895FC01DB0190819230C9
:1023700008F449C08C91823008F445C0943051F47F
:1023800061818430B1F511962C91119730E0261BB4
:10239000310941C0843021F0923041F48230B1F1F2
:1023A00011968C9111978823A1F12DC06181823003
:1023B00001F111968C9111976817D9F4228133811C
:1023C00012968D919C9113978217930794F028177A
:1023D0003907BCF0248135814681578114968D914F
:1023E0009D910D90BC91A02D82179307A407B5076E
:1023F00018F4662341F00DC0281739074A075B0718
:1024000028F4662331F021E030E005C020E030E020
:1024100002C02FEF3FEFC9010895AA1BBB1B51E17A
:1024200007C0AA1FBB1FA617B70710F0A61BB70B44
:10243000881F991F5A95A9F780959095BC01CD01E9
:1024400008952F923F924F925F926F927F928F9258
:102450009F92AF92BF92CF92DF92EF92FF920F9333
:102460001F93CF93DF93CDB7DEB7CA1BDB0B0FB63D
:10247000F894DEBF0FBECDBF09942A8839884888FA
:102480005F846E847D848C849B84AA84B984C88490
:10249000DF80EE80FD800C811B81AA81B981CE0F87
:1024A000D11D0FB6F894DEBF0FBECDBFED0108956C
:1024B000EF92FF920F931F93322FF02E47FF02C02F
:1024C000A4E101C0A4E0E42FFF27E7FDF095F7FFAA
:1024D00003C0F095E195FF4F4F2D512F2E2F032F65
:1024E000EA2E0E949B128F2D912F1F910F91FF902A
:1024F000EF900895FB019F01E8944230C4F045320B
:10250000B4F44A3029F497FB1EF4909581959F4FBF
:10251000642F77270E940D12805D8A330CF0895D4D
:102520008193CB010097A1F716F45DE251931082DD
:10253000C9010C94E314AF92BF92CF92DF92EF9255
:10254000FF920F931F93DF93CF93CDB7DEB72997F9
:102550000FB6F894DEBF0FBECDBF6A01F22E102F6A
:102560000C3318F4B02EB39402C0ECE3BE2EAE01CF
:102570004F5F5F4F27E00B2D0E940B14298130E045
:10258000A901497050704130510531F0E1FC06C09D
:10259000E0FE06C0E0E205C0EDE203C0EBE201C0F0
:1025A000E0E023FF37C0EE2311F084E001C083E0B8
:1025B0008F1518F4F81A8F2D01C080E0E4FC0BC0D1
:1025C000982FD60120E202C02D9391509923E1F774
:1025D000C80ED11C80E0EE2319F0D601ED936D01F9
:1025E000F6013196E2FE05C09EE4D6019C9321E4FB
:1025F00004C09EE6D6019C9321E611962C9391830C
:102600003296982FDF0120E202C02D93915099233A
:10261000E1F73DC022FF41C0EE2311F084E001C08C
:1026200083E08F1518F4F81A8F2D01C080E0E4FCC8
:102630000BC0982FD60120E202C02D939150992310
:10264000E1F7C80ED11C80E0EE2319F0D601ED931E
:102650006D01F6013196E2FE09C099E4D6019C9322
:102660009EE411969C93119796E407C099E6D601D3
:102670009C939EE611969C9396E691833296982FB2
:10268000DF0120E202C02D9391509923E1F7E80F7A
:10269000F11D10822EEF3FEFACC041E050E0EE2381
:1026A00011F440E050E01816190624F4BC016F5FE5
:1026B0007F4F02C061E070E0640F751F112329F0A5
:1026C000412F50E04F5F5F4F02C040E050E0460FA7
:1026D000571F6F2D70E0461757071CF40F2D041B72
:1026E00001C000E0FF24A70140715070E4FC0DC060
:1026F000E3FC0BC0602FD60170E202C07D936150F5
:102700006623E1F7C00ED11C00E0EE2319F0D601DC
:10271000ED936D014115510559F4402FF60150E339
:1027200002C0519341504423E1F7C00ED11C00E098
:10273000B80EFA80A9014071507024FF04C0BF2D6B
:10274000B13309F4BA941B142CF4AB2DA93018F052
:10275000A8E001C0A1E09C0197FF02C020E030E0AA
:10276000BC016F5F7F4F621B730BFE013196E60F5A
:10277000F71F6EE2E62EBC016A1B7109A12FB0E0C3
:10278000AA24BB24AA1ABB0A1FEF2F3F310719F452
:10279000D601ED926D01821793072CF06217730733
:1027A00014F4108101C010E32150304031962A15F5
:1027B0003B0524F0D6011D936D01E6CF281739079C
:1027C00049F4BF2DB63328F4B53321F44115510532
:1027D00009F411E3F6011193802FDF0190E202C0AA
:1027E0009D9381508823E1F7E00FF11D108220E0D6
:1027F00030E0C90129960FB6F894DEBF0FBECDBFF9
:10280000CF91DF911F910F91FF90EF90DF90CF90CC
:10281000BF90AF900895283008F027E03327DA0101
:10282000990F311D87FD916000966105710539F49E
:1028300032602E5F3D9330E32A95E1F708959F3F84
:1028400030F080387105610509F03C5F3C5F3D93D5
:10285000913008F08068911DDF93CF931F930F9301
:10286000FF92EF92192F987F9695E92F969596955E
:10287000E90FFF27EA53FD4F99273327EE24FF2462
:10288000A701E70105900894079428F4360FE71E86
:10289000F81E491F511D660F771F881F991F069448
:1028A000A1F70590079428F4E70EF81E491F561F5C
:1028B000C11D770F881F991F661F0694A1F7059009
:1028C000079428F4F80E491F561FC71FD11D880F03
:1028D000991F661F771F0694A1F70590079420F4AF
:1028E000490F561FC71FD81F990F661F771F881FD4
:1028F0000694A9F784911095177041F0D695C79565
:1029000057954795F794E7941A95C1F7ECE6F2E0EE
:1029100068941590159135916591959105907FE298
:102920007395E118F10A430B560BC90BD009C0F798
:10293000E10CF11E431F561FC91FD01D7EF47033DA
:1029400011F48A95E6CFE894015030F0080F0AF4AC
:102950000027021708F4202F2395022F7A3328F03E
:1029600079E37D932A95E9F710C07D932A9589F63E
:10297000069497956795379517951794E118F10A7E
:10298000430B560BC90BD00998F023957E91739594
:102990007A3308F070E37C932013B8F77E9170616E
:1029A0007D9330F0839571E37D9370E32A95E1F791
:1029B0001124EF90FF900F911F91CF91DF919927F4
:1029C00087FD90950895DC01FC01672F71917723B5
:1029D000E1F7329704C07C916D9370836291AE17DA
:0A29E000BF07C8F30895F894FFCF75
:1029EA00566F6C74202800290052004F00437572FC
:1029FA0072005620286D61783A0054423A2020200D
:102A0A0020207374005443686C3A202020737400A9
:102A1A005379733A00010000000000000000000131
:102A2A000202030303030404040404040404050562
:102A3A00050505050505050505050505050506063A
:102A4A00060606060606060606060606060606061C
:102A5A00060606060606060606060606060607070A
:102A6A0007070707070707070707070707070707EC
:102A7A0007070707070707070707070707070707DC
:102A8A0007070707070707070707070707070707CC
:102A9A0007070707070707070707070707070808BA
:102AAA00080808080808080808080808080808089C
:102ABA00080808080808080808080808080808088C
:102ACA00080808080808080808080808080808087C
:102ADA00080808080808080808080808080808086C
:102AEA00080808080808080808080808080808085C
:102AFA00080808080808080808080808080808084C
:102B0A00080808080808080808080808080808083B
:0E2B1A0008080808080808080808080808083D
:00000001FF
